{
  "contractName": "DappToken",
  "abi": [
    {
      "constant": true,
      "inputs": [],
      "name": "totalSupply",
      "outputs": [
        {
          "name": "",
          "type": "uint256"
        }
      ],
      "payable": false,
      "stateMutability": "view",
      "type": "function"
    },
    {
      "inputs": [],
      "payable": false,
      "stateMutability": "nonpayable",
      "type": "constructor"
    }
  ],
  "bytecode": "0x6080604052348015600f57600080fd5b50620f4240600081905550607b806100286000396000f3fe6080604052348015600f57600080fd5b506004361060285760003560e01c806318160ddd14602d575b600080fd5b60336049565b6040518082815260200191505060405180910390f35b6000548156fea165627a7a7230582083c913438094a0dfd5be05dfa11d7be2bf3efefbd11469e52a89ad28f15d114c0029",
  "source": "pragma solidity >=0.4.21 <0.6.0;\r\n\r\ncontract DappToken{\r\n    //quantidade total de tokens\r\n    //total quantity of tokens\r\n    uint256 public totalSupply;\r\n\r\n\r\n    constructor() public {\r\n        totalSupply = 1000000;\r\n    }\r\n\r\n\r\n}",
  "sourcePath": "D:/DADOS TRAMPO/GIT/tuts/block_chain_eth_token/contracts/DappToken.sol",
  "compiler": {
    "name": "solc",
    "version": "0.5.8+commit.23d335f2.Emscripten.clang"
  },
  "schemaVersion": "3.0.12",
  "updatedAt": "2019-08-21T00:01:44.919Z",
  "devdoc": {
    "methods": {}
  },
  "userdoc": {
    "methods": {}
  }
}